:100E67000A20737461727420454550524F4D5F6478
:100E7700617431207465737431203D2030782562A8
:100E870078000A20B5DAD2BBB4CEB1A3B4E6CABEA5
:100E9700DDA3AC454550524F4D5F646174312074FA
:100EA7006573743120000A20656E642045455052F1
:100EB7004F4D5F64617431207465737431203D2038
:060EC7003078256278007E
:041241008F828E8387
:03124500E493FF30
:011248002283
:040CDC008E118F12D4
:100CE000E4FCE5127807CEC313CE13D8F97807C316
:100CF00033CE33CED8F9FBAA06E4FCECC39480745F
:100D0000809480501DEC2BFFE43AFE1212417513C3
:100D1000008F1474002CF582E43400F583EFF00C9E
:100D200080D97E00E512547F2400F582EE3400F570
:100D300083EDF0EBF5A6EAF5A775AEFFA2AF920939
:100D4000C2AF75C7AA75C755439F01A20992AFA24A
:100D5000AF9209C2AF75C7AA75C75543A501A209CD
:100D600092AF75AF22A2AF9209C2AF75C7AA75C77D
:100D70005543A401A20992AFA2AF9209C2AF75C7B1
:100D8000AA75C755439F01A20992AFA2AF9209C2AB
:100D9000AF75C7AA75C75543A501A20992AF75AF34
:100DA00021E4FCECC3948074809480502AEB2CF5F1
:100DB000A6EAF5A774002CF582E43400F583E0F58B
:100DC000AEA2AF9209C2AF75C7AA75C75543A401B9
:100DD000A20992AF0C80CCA2AF9209C2AF75C7AA8C
:100DE00075C75553A5FEA20992AFA2AF9209C2AF33
:0D0DF00075C7AA75C755539FFEA20992AFA3
:010DFD0022D3
:1011B900750B00750C027B007A007942E4FDE50CA1
:1011C900150CAE0B7002150B4E6019ED2402FFE4ED
:1011D9003438FE121241EF120B750D740129F9E42E
:0411E9003AFA80DA74
:0111ED0022DF
:10110000E4F50BF50C750D02F50E750F0075104228
:10111000E50D150DAE0C7002150C4E6025E50B2487
:1011200002FFE43438FEAB0EAA0FA910120B5CFDCF
:10113000120CDC050B74012510F510E4350FF50FCA
:0211400080CE5F
:01114200228A
:101143007F007EC27D017C001211801211B97BFFEA
:101153007A0E796785420E120862E5426450600F89
:101163007542501211007BFF7A0E79891208627B57
:0D117300FF7A0E79AD85420E12086280FEF3
:1011800053B1BF53B2BF53B17F53B27F7598504331
:101190008920438780438E1053C4DFAB07AA06A97A
:1011A00005A8047F407E427D0F7C00120BC3EF0434
:0911B000F404F58DD28ED29922CF
:100DFE008F258E248D238C2253B1BF53B2BF53B196
:100E0E007F53B27F75985043878053C4F843C420F4
:100E1E00AB25AA24A923A8227F407E427D0F7C0009
:100E2E00120BC3C374FF9FFF74FF9EFEE49DFDE48F
:100E3E009CFC7808120C668FC6AB25AA24A923A8A1
:100E4E00227F407E427D0F7C00120BC3C374FF9F36
:090E5E00FF8FC543C408D299229C
:071249003098FDAF99C29837
:01125000227B
:08125100C2998F993099FD222A
:100ECD008F298E288D278C2653B1FB53B2FB53B33C
:100EDD00BF53B4BF75F85075C40853C4DFAB29AA0E
:100EED0028A927A8267F407E427D0F7C00120BC3C8
:100EFD00C374FF9FFF74FF9EFEE49DFDE49CFC7890
:100F0D0008120C668FC6AB29AA28A927A8267F40F0
:100F1D007E427D0F7C00120BC3C374FF9FFF8FC5F4
:040F2D0043C408228F
:0712590030F8FDAF9AC2F866
:01126000226B
:08126100C2F98F9A30F9FD2259
:10101F008F2D8E2C8D2B8C2A538EF7438901D28CDA
:10102F00E4FFFEFDFCAB2DAA2CA92BA82AC3120CA2
:10103F00556025758A7E758CFF308DFDC28DE52D2F
:10104F0024FFF52DE52C34FFF52CE52B34FFF52B84
:0B105F00E52A34FFF52A80C8C28C226D
:10106A008F318E308D2F8C2E538EF7438901D28C7F
:10107A00E4FFFEFDFCAB31AA30A92FA82EC3120C47
:10108A00556025758ACA758CFA308DFDC28DE53199
:10109A0024FFF531E53034FFF530E52F34FFF52F25
:0B10AA00E52E34FFF52E80C8C28C221A
:1010B5008F358E348D338C32538EEF438910D28E1B
:1010C500E4FFFEFDFCAB35AA34A933A832C3120CEC
:1010D500556025758BEA758DCB308FFDC28FE53553
:1010E50024FFF535E53434FFF534E53334FFF533C6
:0B10F500E53234FFF53280C8C28E22C5
:100FD1008F398E388D378C3653C9BF53C9DF43C91A
:100FE10010D2CAE4FFFEFDFCAB39AA38A937A836F6
:100FF100C3120C55602575CC3075CDF830CFFDC2CC
:10100100CFE53924FFF539E53834FFF538E53734D4
:0E101100FFF537E53634FFF53680C8C2CA2237
:100F31008F3D8E3C8D3B8C3A75C40743C408E4FF5A
:100F4100FEFDFCAB3DAA3CA93BA83AC3120C55607F
:100F51002B75C52C75C6CFE5C45410641070F853B9
:100F6100C4EFE53D24FFF53DE53C34FFF53CE53BB1
:100F710034FFF53BE53A34FFF53A80C253C4F7221A
:100F81008F418E408D3F8C3E75C40743C408E4FFFA
:100F9100FEFDFCAB41AA40A93FA83EC3120C55601F
:100FA1002B75C5D875C6FFE5C45410641070F8538D
:100FB100C4EFE54124FFF541E54034FFF540E53F4D
:100FC10034FFF53FE53E34FFF53E80C253C4F722BE
:030000000211EEFC
:1011EE0075C7AA75C75575FD5A75C7AA75C75575C2
:1011FE00FDA5787FE4F6D8FD9000007FFF7E03E426
:0C120E00F0A3DFFCDEFA758143021143FF
:100B5C00BB010689828A83E0225002E722BBFE0297
:090B6C00E32289828A83E49322CA
:100B7500BB010689828A83F0225002F722BBFE015F
:020B8500F32259
:100B870075F008758200EF2FFFEE33FECD33CDCC25
:100B970033CCC58233C5829BED9AEC99E5829840A8
:100BA7000CF582EE9BFEED9AFDEC99FC0FD5F0D685
:100BB700E4CEFBE4CDFAE4CCF9A88222B800C1B9AF
:100BC7000059BA002DEC8BF084CFCECDFCE5F0CBED
:100BD700F97818EF2FFFEE33FEED33FDEC33FCEB26
:100BE70033FB10D703994004EB99FB0FD8E5E4F9E1
:100BF700FA227818EF2FFFEE33FEED33FDEC33FCCE
:100C0700C933C910D7059BE99A4007EC9BFCE99AC1
:100C1700F90FD8E0E4C9FAE4CCFB2275F010EF2F06
:100C2700FFEE33FEED33FDCC33CCC833C810D70706
:100C37009BEC9AE899400AED9BFDEC9AFCE899F841
:0E0C47000FD5F0DAE4CDFBE4CCFAE4C8F922D4
:100C5500EB9FF5F0EA9E42F0E99D42F0E89C45F0F5
:010C6500226C
:100C6600E8600FECC313FCED13FDEE13FEEF13FF6C
:030C7600D8F12290
:10080000E51A240EF8E6051A22780B300702780E56
:10081000E475F001120CA6020B5C2000EB7F2ED2D7
:10082000008018EF540F2490D43440D4FF30040BD0
:10083000EF24BFB41A0050032461FFE51B600215CA
:100840001B051EE51E7002051D30070D780BE475B3
:10085000F001120CA6EF020B7502121A7403D207F4
:100860008003E4C207F51A8B0B8A0C890DE4F51B93
:10087000F51DF51EE51B60077F2012083B80F5750E
:100880001CFFC201C200C202C203C205C206C208E6
:10089000120809FF700D3007057F0012084CAF1ECB
:1008A000AE1D22B4255FC2D5C204120809FF24D0B0
:1008B000B40A00501A75F00A781B30D50508B6FF47
:1008C0000106C6A426F620D5047002D20380D924DE
:1008D000CFB41A00EF5004C2E5D204020A4CD20190
:1008E00080C6D20080C0D20280BCD2D580BAD205E8
:1008F00080B47F2012083B2002077401B51B004022
:10090000F1120800FF12083B020874D208D20680D8
:1009100095120800FB120800FA120800F94A4B7001
:1009200006791D7A0B7BFF20022EE51B602A7E00D4
:100930008E82758300120C7960060EEE651C70F0D5
:10094000C2D5EBC0E0EAC0E0E9C0E0EE120A93D005
:10095000E0F9D0E0FAD0E0FB120B5CFF60AAEBC03C
:10096000E0EAC0E0E9C0E012083BD0E02401F9D0A1
:10097000E03400FAD0E0FBE51C0460DCD51CD98033
:10098000877BFF7A0A798FD202809C791080027966
:1009900008C206C2088008D2D5790A8004790AC242
:1009A000D5E51C047002F51CE4FAFDFEFF120800F8
:1009B000FC7B08200113120800FD7B1030000A1296
:1009C0000800FE120800FF7B20EC3382D592D55040
:1009D00013C3E43000069FFFE49EFEE42001039D64
:1009E000FDE49CFCE4CBF8C201EC700CCFCECDCC86
:1009F000E824F8F870F38017C3EF33FFEE33FEED11
:100A000033FDEC33FCEB33FB994002FB0FD8E9EBF1
:100A1000300105F8D0E0C448B201C0E00AEC4D4E08
:100A20004F78207B0070C2EAB51C0040BCC0E012C9
:100A30000A95D0F0D0E0200104C4C0E0C4B201C0E7
:100A4000F0120824D0F0D5F0EB020874120CB609AD
:100A50001153098B5808E24C08DE42098F4F099761
:0F0A60004409974908F743099D550981460981C3
:100A6F00450981470B3D5008E62D08EA2E090D2B4D
:100A7F0008EE23090B200B262A08A64800000905BB
:100A8F003F3F3F00790AA2D5200314300509B91062
:100A9F00020404B9080104A2D52006025001042063
:100AAF0002689202B51B005034C0E07F203003195A
:100ABF007F30A20272067205500F120AECC202C2F8
:100ACF0006C205C2087F30800F300503E9C0E0126F
:100ADF00083B300503D0E0F9D0E0B51BCC3005174B
:100AEF007F30B9100C12083B7F583004077F788095
:100AFF0003B9080312083B3002057F2D02083B7F24
:100B0F00202008F87F2B2006F322920280CF286E38
:100B1F00756C6C2900D2011208003001F8C20178FF
:100B2F001B30D50108F60208A62D5043495812086C
:100B3F00002403B405004001E4900B389312082CF5
:0D0B4F00743A12082CD203751B0402098BA6
:100C7900BB010CE58229F582E5833AF583E0225030
:100C890006E92582F8E622BBFE06E92582F8E2227A
:0D0C9900E58229F582E5833AF583E4932294
:100CA600FAE6FB0808E6F925F0F618E6CA3AF6224F
:100CB600D083D082F8E4937012740193700DA3A3CD
:100CC60093F8740193F5828883E4737402936860E1
:060CD600EFA3A3A380DFE1
:10121A00EFB40A07740D121225740A309811A899AE
:10122A00B8130CC2983098FDA899C298B811F63034
:07123A0099FDC299F599220C
:00000001FF
